{
  "_format": "hh-sol-artifact-1",
  "contractName": "MyNFT",
  "sourceName": "contracts/MyNFT.sol",
  "abi": [
    {
      "inputs": [],
      "stateMutability": "nonpayable",
      "type": "constructor"
    },
    {
      "anonymous": false,
      "inputs": [
        {
          "indexed": true,
          "internalType": "address",
          "name": "owner",
          "type": "address"
        },
        {
          "indexed": true,
          "internalType": "address",
          "name": "approved",
          "type": "address"
        },
        {
          "indexed": true,
          "internalType": "uint256",
          "name": "tokenId",
          "type": "uint256"
        }
      ],
      "name": "Approval",
      "type": "event"
    },
    {
      "anonymous": false,
      "inputs": [
        {
          "indexed": true,
          "internalType": "address",
          "name": "owner",
          "type": "address"
        },
        {
          "indexed": true,
          "internalType": "address",
          "name": "operator",
          "type": "address"
        },
        {
          "indexed": false,
          "internalType": "bool",
          "name": "approved",
          "type": "bool"
        }
      ],
      "name": "ApprovalForAll",
      "type": "event"
    },
    {
      "anonymous": false,
      "inputs": [
        {
          "indexed": true,
          "internalType": "address",
          "name": "previousOwner",
          "type": "address"
        },
        {
          "indexed": true,
          "internalType": "address",
          "name": "newOwner",
          "type": "address"
        }
      ],
      "name": "OwnershipTransferred",
      "type": "event"
    },
    {
      "anonymous": false,
      "inputs": [
        {
          "indexed": true,
          "internalType": "address",
          "name": "from",
          "type": "address"
        },
        {
          "indexed": true,
          "internalType": "address",
          "name": "to",
          "type": "address"
        },
        {
          "indexed": true,
          "internalType": "uint256",
          "name": "tokenId",
          "type": "uint256"
        }
      ],
      "name": "Transfer",
      "type": "event"
    },
    {
      "inputs": [
        {
          "internalType": "address",
          "name": "_consumerAddress",
          "type": "address"
        },
        {
          "components": [
            {
              "internalType": "string",
              "name": "orderId",
              "type": "string"
            },
            {
              "internalType": "string",
              "name": "productId",
              "type": "string"
            },
            {
              "components": [
                {
                  "internalType": "string",
                  "name": "name",
                  "type": "string"
                },
                {
                  "internalType": "int256",
                  "name": "amount",
                  "type": "int256"
                },
                {
                  "internalType": "int256",
                  "name": "warrantyPeriod",
                  "type": "int256"
                }
              ],
              "internalType": "struct MyNFT.Product",
              "name": "product",
              "type": "tuple"
            }
          ],
          "internalType": "struct MyNFT.Transaction",
          "name": "transaction",
          "type": "tuple"
        }
      ],
      "name": "addTransaction",
      "outputs": [],
      "stateMutability": "nonpayable",
      "type": "function"
    },
    {
      "inputs": [
        {
          "internalType": "address",
          "name": "to",
          "type": "address"
        },
        {
          "internalType": "uint256",
          "name": "tokenId",
          "type": "uint256"
        }
      ],
      "name": "approve",
      "outputs": [],
      "stateMutability": "nonpayable",
      "type": "function"
    },
    {
      "inputs": [
        {
          "internalType": "address",
          "name": "_retailerAddress",
          "type": "address"
        },
        {
          "internalType": "string",
          "name": "_retailerName",
          "type": "string"
        }
      ],
      "name": "authorizeRetailer",
      "outputs": [],
      "stateMutability": "nonpayable",
      "type": "function"
    },
    {
      "inputs": [
        {
          "internalType": "address",
          "name": "owner",
          "type": "address"
        }
      ],
      "name": "balanceOf",
      "outputs": [
        {
          "internalType": "uint256",
          "name": "",
          "type": "uint256"
        }
      ],
      "stateMutability": "view",
      "type": "function"
    },
    {
      "inputs": [
        {
          "internalType": "uint256",
          "name": "tokenId",
          "type": "uint256"
        }
      ],
      "name": "getApproved",
      "outputs": [
        {
          "internalType": "address",
          "name": "",
          "type": "address"
        }
      ],
      "stateMutability": "view",
      "type": "function"
    },
    {
      "inputs": [
        {
          "internalType": "address",
          "name": "owner",
          "type": "address"
        },
        {
          "internalType": "address",
          "name": "operator",
          "type": "address"
        }
      ],
      "name": "isApprovedForAll",
      "outputs": [
        {
          "internalType": "bool",
          "name": "",
          "type": "bool"
        }
      ],
      "stateMutability": "view",
      "type": "function"
    },
    {
      "inputs": [
        {
          "internalType": "address",
          "name": "recipient",
          "type": "address"
        },
        {
          "internalType": "string",
          "name": "tokenURI",
          "type": "string"
        }
      ],
      "name": "mintNFT",
      "outputs": [
        {
          "internalType": "uint256",
          "name": "",
          "type": "uint256"
        }
      ],
      "stateMutability": "nonpayable",
      "type": "function"
    },
    {
      "inputs": [],
      "name": "name",
      "outputs": [
        {
          "internalType": "string",
          "name": "",
          "type": "string"
        }
      ],
      "stateMutability": "view",
      "type": "function"
    },
    {
      "inputs": [],
      "name": "owner",
      "outputs": [
        {
          "internalType": "address",
          "name": "",
          "type": "address"
        }
      ],
      "stateMutability": "view",
      "type": "function"
    },
    {
      "inputs": [],
      "name": "owner1",
      "outputs": [
        {
          "internalType": "address",
          "name": "",
          "type": "address"
        }
      ],
      "stateMutability": "view",
      "type": "function"
    },
    {
      "inputs": [
        {
          "internalType": "uint256",
          "name": "tokenId",
          "type": "uint256"
        }
      ],
      "name": "ownerOf",
      "outputs": [
        {
          "internalType": "address",
          "name": "",
          "type": "address"
        }
      ],
      "stateMutability": "view",
      "type": "function"
    },
    {
      "inputs": [],
      "name": "renounceOwnership",
      "outputs": [],
      "stateMutability": "nonpayable",
      "type": "function"
    },
    {
      "inputs": [
        {
          "internalType": "address",
          "name": "from",
          "type": "address"
        },
        {
          "internalType": "address",
          "name": "to",
          "type": "address"
        },
        {
          "internalType": "uint256",
          "name": "tokenId",
          "type": "uint256"
        }
      ],
      "name": "safeTransferFrom",
      "outputs": [],
      "stateMutability": "nonpayable",
      "type": "function"
    },
    {
      "inputs": [
        {
          "internalType": "address",
          "name": "from",
          "type": "address"
        },
        {
          "internalType": "address",
          "name": "to",
          "type": "address"
        },
        {
          "internalType": "uint256",
          "name": "tokenId",
          "type": "uint256"
        },
        {
          "internalType": "bytes",
          "name": "data",
          "type": "bytes"
        }
      ],
      "name": "safeTransferFrom",
      "outputs": [],
      "stateMutability": "nonpayable",
      "type": "function"
    },
    {
      "inputs": [
        {
          "internalType": "address",
          "name": "operator",
          "type": "address"
        },
        {
          "internalType": "bool",
          "name": "approved",
          "type": "bool"
        }
      ],
      "name": "setApprovalForAll",
      "outputs": [],
      "stateMutability": "nonpayable",
      "type": "function"
    },
    {
      "inputs": [
        {
          "internalType": "string",
          "name": "_storeName",
          "type": "string"
        }
      ],
      "name": "startStore",
      "outputs": [],
      "stateMutability": "nonpayable",
      "type": "function"
    },
    {
      "inputs": [],
      "name": "storeName",
      "outputs": [
        {
          "internalType": "string",
          "name": "",
          "type": "string"
        }
      ],
      "stateMutability": "view",
      "type": "function"
    },
    {
      "inputs": [
        {
          "internalType": "bytes4",
          "name": "interfaceId",
          "type": "bytes4"
        }
      ],
      "name": "supportsInterface",
      "outputs": [
        {
          "internalType": "bool",
          "name": "",
          "type": "bool"
        }
      ],
      "stateMutability": "view",
      "type": "function"
    },
    {
      "inputs": [],
      "name": "symbol",
      "outputs": [
        {
          "internalType": "string",
          "name": "",
          "type": "string"
        }
      ],
      "stateMutability": "view",
      "type": "function"
    },
    {
      "inputs": [
        {
          "internalType": "uint256",
          "name": "tokenId",
          "type": "uint256"
        }
      ],
      "name": "tokenURI",
      "outputs": [
        {
          "internalType": "string",
          "name": "",
          "type": "string"
        }
      ],
      "stateMutability": "view",
      "type": "function"
    },
    {
      "inputs": [
        {
          "internalType": "address",
          "name": "from",
          "type": "address"
        },
        {
          "internalType": "address",
          "name": "to",
          "type": "address"
        },
        {
          "internalType": "uint256",
          "name": "tokenId",
          "type": "uint256"
        }
      ],
      "name": "transferFrom",
      "outputs": [],
      "stateMutability": "nonpayable",
      "type": "function"
    },
    {
      "inputs": [
        {
          "internalType": "address",
          "name": "newOwner",
          "type": "address"
        }
      ],
      "name": "transferOwnership",
      "outputs": [],
      "stateMutability": "nonpayable",
      "type": "function"
    }
  ],
  "bytecode": "0x60806040523480156200001157600080fd5b506040518060400160405280600581526020017f4d794e46540000000000000000000000000000000000000000000000000000008152506040518060400160405280600381526020017f4e4654000000000000000000000000000000000000000000000000000000000081525081600090816200008f919062000412565b508060019081620000a1919062000412565b505050620000c4620000b8620000ca60201b60201c565b620000d260201b60201c565b620004f9565b600033905090565b6000600760009054906101000a900473ffffffffffffffffffffffffffffffffffffffff16905081600760006101000a81548173ffffffffffffffffffffffffffffffffffffffff021916908373ffffffffffffffffffffffffffffffffffffffff1602179055508173ffffffffffffffffffffffffffffffffffffffff168173ffffffffffffffffffffffffffffffffffffffff167f8be0079c531659141344cd1fd0a4f28419497f9722a3daafe3b4186f6b6457e060405160405180910390a35050565b600081519050919050565b7f4e487b7100000000000000000000000000000000000000000000000000000000600052604160045260246000fd5b7f4e487b7100000000000000000000000000000000000000000000000000000000600052602260045260246000fd5b600060028204905060018216806200021a57607f821691505b60208210810362000230576200022f620001d2565b5b50919050565b60008190508160005260206000209050919050565b60006020601f8301049050919050565b600082821b905092915050565b6000600883026200029a7fffffffffffffffffffffffffffffffffffffffffffffffffffffffffffffffff826200025b565b620002a686836200025b565b95508019841693508086168417925050509392505050565b6000819050919050565b6000819050919050565b6000620002f3620002ed620002e784620002be565b620002c8565b620002be565b9050919050565b6000819050919050565b6200030f83620002d2565b620003276200031e82620002fa565b84845462000268565b825550505050565b600090565b6200033e6200032f565b6200034b81848462000304565b505050565b5b8181101562000373576200036760008262000334565b60018101905062000351565b5050565b601f821115620003c2576200038c8162000236565b62000397846200024b565b81016020851015620003a7578190505b620003bf620003b6856200024b565b83018262000350565b50505b505050565b600082821c905092915050565b6000620003e760001984600802620003c7565b1980831691505092915050565b6000620004028383620003d4565b9150826002028217905092915050565b6200041d8262000198565b67ffffffffffffffff811115620004395762000438620001a3565b5b62000445825462000201565b6200045282828562000377565b600060209050601f8311600181146200048a576000841562000475578287015190505b620004818582620003f4565b865550620004f1565b601f1984166200049a8662000236565b60005b82811015620004c4578489015182556001820191506020850194506020810190506200049d565b86831015620004e45784890151620004e0601f891682620003d4565b8355505b6001600288020188555050505b505050505050565b6133c280620005096000396000f3fe608060405234801561001057600080fd5b50600436106101425760003560e01c8063715018a6116100b8578063b88d4fde1161007c578063b88d4fde1461034f578063c87b56dd1461036b578063e985e9c51461039b578063eacabe14146103cb578063f2fde38b146103fb578063f73b26a91461041757610142565b8063715018a6146102cf57806373688914146102d95780638da5cb5b146102f757806395d89b4114610315578063a22cb4651461033357610142565b80633bd5cbd71161010a5780633bd5cbd7146101fd57806342842e0e14610219578063521936e6146102355780635ccd4709146102535780636352211e1461026f57806370a082311461029f57610142565b806301ffc9a71461014757806306fdde0314610177578063081812fc14610195578063095ea7b3146101c557806323b872dd146101e1575b600080fd5b610161600480360381019061015c9190611f96565b610433565b60405161016e9190611fde565b60405180910390f35b61017f610515565b60405161018c9190612089565b60405180910390f35b6101af60048036038101906101aa91906120e1565b6105a7565b6040516101bc919061214f565b60405180910390f35b6101df60048036038101906101da9190612196565b6105ed565b005b6101fb60048036038101906101f691906121d6565b610704565b005b6102176004803603810190610212919061235e565b610764565b005b610233600480360381019061022e91906121d6565b6107b8565b005b61023d6107d8565b60405161024a9190612089565b60405180910390f35b61026d600480360381019061026891906123a7565b610866565b005b610289600480360381019061028491906120e1565b610954565b604051610296919061214f565b60405180910390f35b6102b960048036038101906102b49190612403565b6109da565b6040516102c6919061243f565b60405180910390f35b6102d7610a91565b005b6102e1610aa5565b6040516102ee919061214f565b60405180910390f35b6102ff610acb565b60405161030c919061214f565b60405180910390f35b61031d610af5565b60405161032a9190612089565b60405180910390f35b61034d60048036038101906103489190612486565b610b87565b005b61036960048036038101906103649190612567565b610b9d565b005b610385600480360381019061038091906120e1565b610bff565b6040516103929190612089565b60405180910390f35b6103b560048036038101906103b091906125ea565b610d11565b6040516103c29190611fde565b60405180910390f35b6103e560048036038101906103e091906123a7565b610da5565b6040516103f2919061243f565b60405180910390f35b61041560048036038101906104109190612403565b610de5565b005b610431600480360381019061042c91906127a2565b610e68565b005b60007f80ac58cd000000000000000000000000000000000000000000000000000000007bffffffffffffffffffffffffffffffffffffffffffffffffffffffff1916827bffffffffffffffffffffffffffffffffffffffffffffffffffffffff191614806104fe57507f5b5e139f000000000000000000000000000000000000000000000000000000007bffffffffffffffffffffffffffffffffffffffffffffffffffffffff1916827bffffffffffffffffffffffffffffffffffffffffffffffffffffffff1916145b8061050e575061050d82610f98565b5b9050919050565b6060600080546105249061282d565b80601f01602080910402602001604051908101604052809291908181526020018280546105509061282d565b801561059d5780601f106105725761010080835404028352916020019161059d565b820191906000526020600020905b81548152906001019060200180831161058057829003601f168201915b5050505050905090565b60006105b282611002565b6004600083815260200190815260200160002060009054906101000a900473ffffffffffffffffffffffffffffffffffffffff169050919050565b60006105f882610954565b90508073ffffffffffffffffffffffffffffffffffffffff168373ffffffffffffffffffffffffffffffffffffffff1603610668576040517f08c379a000000000000000000000000000000000000000000000000000000000815260040161065f906128d0565b60405180910390fd5b8073ffffffffffffffffffffffffffffffffffffffff1661068761104d565b73ffffffffffffffffffffffffffffffffffffffff1614806106b657506106b5816106b061104d565b610d11565b5b6106f5576040517f08c379a00000000000000000000000000000000000000000000000000000000081526004016106ec90612962565b60405180910390fd5b6106ff8383611055565b505050565b61071561070f61104d565b8261110e565b610754576040517f08c379a000000000000000000000000000000000000000000000000000000000815260040161074b906129f4565b60405180910390fd5b61075f8383836111a3565b505050565b33600a60006101000a81548173ffffffffffffffffffffffffffffffffffffffff021916908373ffffffffffffffffffffffffffffffffffffffff16021790555080600b90816107b49190612bc0565b5050565b6107d383838360405180602001604052806000815250610b9d565b505050565b600b80546107e59061282d565b80601f01602080910402602001604051908101604052809291908181526020018280546108119061282d565b801561085e5780601f106108335761010080835404028352916020019161085e565b820191906000526020600020905b81548152906001019060200180831161084157829003601f168201915b505050505081565b600a60009054906101000a900473ffffffffffffffffffffffffffffffffffffffff1673ffffffffffffffffffffffffffffffffffffffff163373ffffffffffffffffffffffffffffffffffffffff16146108c057600080fd5b604051806040016040528082815260200160011515815250600d60008473ffffffffffffffffffffffffffffffffffffffff1673ffffffffffffffffffffffffffffffffffffffff168152602001908152602001600020600082015181600001908161092c9190612bc0565b5060208201518160010160006101000a81548160ff0219169083151502179055509050505050565b6000806109608361149c565b9050600073ffffffffffffffffffffffffffffffffffffffff168173ffffffffffffffffffffffffffffffffffffffff16036109d1576040517f08c379a00000000000000000000000000000000000000000000000000000000081526004016109c890612cde565b60405180910390fd5b80915050919050565b60008073ffffffffffffffffffffffffffffffffffffffff168273ffffffffffffffffffffffffffffffffffffffff1603610a4a576040517f08c379a0000000000000000000000000000000000000000000000000000000008152600401610a4190612d70565b60405180910390fd5b600360008373ffffffffffffffffffffffffffffffffffffffff1673ffffffffffffffffffffffffffffffffffffffff168152602001908152602001600020549050919050565b610a996114d9565b610aa36000611557565b565b600a60009054906101000a900473ffffffffffffffffffffffffffffffffffffffff1681565b6000600760009054906101000a900473ffffffffffffffffffffffffffffffffffffffff16905090565b606060018054610b049061282d565b80601f0160208091040260200160405190810160405280929190818152602001828054610b309061282d565b8015610b7d5780601f10610b5257610100808354040283529160200191610b7d565b820191906000526020600020905b815481529060010190602001808311610b6057829003601f168201915b5050505050905090565b610b99610b9261104d565b838361161d565b5050565b610bae610ba861104d565b8361110e565b610bed576040517f08c379a0000000000000000000000000000000000000000000000000000000008152600401610be4906129f4565b60405180910390fd5b610bf984848484611789565b50505050565b6060610c0a82611002565b6000600660008481526020019081526020016000208054610c2a9061282d565b80601f0160208091040260200160405190810160405280929190818152602001828054610c569061282d565b8015610ca35780601f10610c7857610100808354040283529160200191610ca3565b820191906000526020600020905b815481529060010190602001808311610c8657829003601f168201915b505050505090506000610cb46117e5565b90506000815103610cc9578192505050610d0c565b600082511115610cfe578082604051602001610ce6929190612dcc565b60405160208183030381529060405292505050610d0c565b610d07846117fc565b925050505b919050565b6000600560008473ffffffffffffffffffffffffffffffffffffffff1673ffffffffffffffffffffffffffffffffffffffff16815260200190815260200160002060008373ffffffffffffffffffffffffffffffffffffffff1673ffffffffffffffffffffffffffffffffffffffff16815260200190815260200160002060009054906101000a900460ff16905092915050565b6000610daf6114d9565b610db96008611864565b6000610dc5600861187a565b9050610dd18482611888565b610ddb8184611aa5565b8091505092915050565b610ded6114d9565b600073ffffffffffffffffffffffffffffffffffffffff168173ffffffffffffffffffffffffffffffffffffffff1603610e5c576040517f08c379a0000000000000000000000000000000000000000000000000000000008152600401610e5390612e62565b60405180910390fd5b610e6581611557565b50565b60011515600d60003373ffffffffffffffffffffffffffffffffffffffff1673ffffffffffffffffffffffffffffffffffffffff16815260200190815260200160002060010160009054906101000a900460ff16151514610ec857600080fd5b600960008373ffffffffffffffffffffffffffffffffffffffff1673ffffffffffffffffffffffffffffffffffffffff1681526020019081526020016000208190806001815401808255809150506001900390600052602060002090600502016000909190919091506000820151816000019081610f469190612bc0565b506020820151816001019081610f5c9190612bc0565b506040820151816002016000820151816000019081610f7b9190612bc0565b506020820151816001015560408201518160020155505050505050565b60007f01ffc9a7000000000000000000000000000000000000000000000000000000007bffffffffffffffffffffffffffffffffffffffffffffffffffffffff1916827bffffffffffffffffffffffffffffffffffffffffffffffffffffffff1916149050919050565b61100b81611b12565b61104a576040517f08c379a000000000000000000000000000000000000000000000000000000000815260040161104190612cde565b60405180910390fd5b50565b600033905090565b816004600083815260200190815260200160002060006101000a81548173ffffffffffffffffffffffffffffffffffffffff021916908373ffffffffffffffffffffffffffffffffffffffff160217905550808273ffffffffffffffffffffffffffffffffffffffff166110c883610954565b73ffffffffffffffffffffffffffffffffffffffff167f8c5be1e5ebec7d5bd14f71427d1e84f3dd0314c0f7b2291e5b200ac8c7c3b92560405160405180910390a45050565b60008061111a83610954565b90508073ffffffffffffffffffffffffffffffffffffffff168473ffffffffffffffffffffffffffffffffffffffff16148061115c575061115b8185610d11565b5b8061119a57508373ffffffffffffffffffffffffffffffffffffffff16611182846105a7565b73ffffffffffffffffffffffffffffffffffffffff16145b91505092915050565b8273ffffffffffffffffffffffffffffffffffffffff166111c382610954565b73ffffffffffffffffffffffffffffffffffffffff1614611219576040517f08c379a000000000000000000000000000000000000000000000000000000000815260040161121090612ef4565b60405180910390fd5b600073ffffffffffffffffffffffffffffffffffffffff168273ffffffffffffffffffffffffffffffffffffffff1603611288576040517f08c379a000000000000000000000000000000000000000000000000000000000815260040161127f90612f86565b60405180910390fd5b6112958383836001611b53565b8273ffffffffffffffffffffffffffffffffffffffff166112b582610954565b73ffffffffffffffffffffffffffffffffffffffff161461130b576040517f08c379a000000000000000000000000000000000000000000000000000000000815260040161130290612ef4565b60405180910390fd5b6004600082815260200190815260200160002060006101000a81549073ffffffffffffffffffffffffffffffffffffffff02191690556001600360008573ffffffffffffffffffffffffffffffffffffffff1673ffffffffffffffffffffffffffffffffffffffff168152602001908152602001600020600082825403925050819055506001600360008473ffffffffffffffffffffffffffffffffffffffff1673ffffffffffffffffffffffffffffffffffffffff16815260200190815260200160002060008282540192505081905550816002600083815260200190815260200160002060006101000a81548173ffffffffffffffffffffffffffffffffffffffff021916908373ffffffffffffffffffffffffffffffffffffffff160217905550808273ffffffffffffffffffffffffffffffffffffffff168473ffffffffffffffffffffffffffffffffffffffff167fddf252ad1be2c89b69c2b068fc378daa952ba7f163c4a11628f55a4df523b3ef60405160405180910390a46114978383836001611b59565b505050565b60006002600083815260200190815260200160002060009054906101000a900473ffffffffffffffffffffffffffffffffffffffff169050919050565b6114e161104d565b73ffffffffffffffffffffffffffffffffffffffff166114ff610acb565b73ffffffffffffffffffffffffffffffffffffffff1614611555576040517f08c379a000000000000000000000000000000000000000000000000000000000815260040161154c90612ff2565b60405180910390fd5b565b6000600760009054906101000a900473ffffffffffffffffffffffffffffffffffffffff16905081600760006101000a81548173ffffffffffffffffffffffffffffffffffffffff021916908373ffffffffffffffffffffffffffffffffffffffff1602179055508173ffffffffffffffffffffffffffffffffffffffff168173ffffffffffffffffffffffffffffffffffffffff167f8be0079c531659141344cd1fd0a4f28419497f9722a3daafe3b4186f6b6457e060405160405180910390a35050565b8173ffffffffffffffffffffffffffffffffffffffff168373ffffffffffffffffffffffffffffffffffffffff160361168b576040517f08c379a00000000000000000000000000000000000000000000000000000000081526004016116829061305e565b60405180910390fd5b80600560008573ffffffffffffffffffffffffffffffffffffffff1673ffffffffffffffffffffffffffffffffffffffff16815260200190815260200160002060008473ffffffffffffffffffffffffffffffffffffffff1673ffffffffffffffffffffffffffffffffffffffff16815260200190815260200160002060006101000a81548160ff0219169083151502179055508173ffffffffffffffffffffffffffffffffffffffff168373ffffffffffffffffffffffffffffffffffffffff167f17307eab39ab6107e8899845ad3d59bd9653f200f220920489ca2b5937696c318360405161177c9190611fde565b60405180910390a3505050565b6117948484846111a3565b6117a084848484611b5f565b6117df576040517f08c379a00000000000000000000000000000000000000000000000000000000081526004016117d6906130f0565b60405180910390fd5b50505050565b606060405180602001604052806000815250905090565b606061180782611002565b60006118116117e5565b90506000815111611831576040518060200160405280600081525061185c565b8061183b84611ce6565b60405160200161184c929190612dcc565b6040516020818303038152906040525b915050919050565b6001816000016000828254019250508190555050565b600081600001549050919050565b600073ffffffffffffffffffffffffffffffffffffffff168273ffffffffffffffffffffffffffffffffffffffff16036118f7576040517f08c379a00000000000000000000000000000000000000000000000000000000081526004016118ee9061315c565b60405180910390fd5b61190081611b12565b15611940576040517f08c379a0000000000000000000000000000000000000000000000000000000008152600401611937906131c8565b60405180910390fd5b61194e600083836001611b53565b61195781611b12565b15611997576040517f08c379a000000000000000000000000000000000000000000000000000000000815260040161198e906131c8565b60405180910390fd5b6001600360008473ffffffffffffffffffffffffffffffffffffffff1673ffffffffffffffffffffffffffffffffffffffff16815260200190815260200160002060008282540192505081905550816002600083815260200190815260200160002060006101000a81548173ffffffffffffffffffffffffffffffffffffffff021916908373ffffffffffffffffffffffffffffffffffffffff160217905550808273ffffffffffffffffffffffffffffffffffffffff16600073ffffffffffffffffffffffffffffffffffffffff167fddf252ad1be2c89b69c2b068fc378daa952ba7f163c4a11628f55a4df523b3ef60405160405180910390a4611aa1600083836001611b59565b5050565b611aae82611b12565b611aed576040517f08c379a0000000000000000000000000000000000000000000000000000000008152600401611ae49061325a565b60405180910390fd5b80600660008481526020019081526020016000209081611b0d9190612bc0565b505050565b60008073ffffffffffffffffffffffffffffffffffffffff16611b348361149c565b73ffffffffffffffffffffffffffffffffffffffff1614159050919050565b50505050565b50505050565b6000611b808473ffffffffffffffffffffffffffffffffffffffff16611db4565b15611cd9578373ffffffffffffffffffffffffffffffffffffffff1663150b7a02611ba961104d565b8786866040518563ffffffff1660e01b8152600401611bcb94939291906132cf565b6020604051808303816000875af1925050508015611c0757506040513d601f19601f82011682018060405250810190611c049190613330565b60015b611c89573d8060008114611c37576040519150601f19603f3d011682016040523d82523d6000602084013e611c3c565b606091505b506000815103611c81576040517f08c379a0000000000000000000000000000000000000000000000000000000008152600401611c78906130f0565b60405180910390fd5b805181602001fd5b63150b7a0260e01b7bffffffffffffffffffffffffffffffffffffffffffffffffffffffff1916817bffffffffffffffffffffffffffffffffffffffffffffffffffffffff191614915050611cde565b600190505b949350505050565b606060006001611cf584611dd7565b01905060008167ffffffffffffffff811115611d1457611d13612233565b5b6040519080825280601f01601f191660200182016040528015611d465781602001600182028036833780820191505090505b509050600082602001820190505b600115611da9578080600190039150507f3031323334353637383961626364656600000000000000000000000000000000600a86061a8153600a8581611d9d57611d9c61335d565b5b04945060008503611d54575b819350505050919050565b6000808273ffffffffffffffffffffffffffffffffffffffff163b119050919050565b600080600090507a184f03e93ff9f4daa797ed6e38ed64bf6a1f0100000000000000008310611e35577a184f03e93ff9f4daa797ed6e38ed64bf6a1f0100000000000000008381611e2b57611e2a61335d565b5b0492506040810190505b6d04ee2d6d415b85acef81000000008310611e72576d04ee2d6d415b85acef81000000008381611e6857611e6761335d565b5b0492506020810190505b662386f26fc100008310611ea157662386f26fc100008381611e9757611e9661335d565b5b0492506010810190505b6305f5e1008310611eca576305f5e1008381611ec057611ebf61335d565b5b0492506008810190505b6127108310611eef576127108381611ee557611ee461335d565b5b0492506004810190505b60648310611f125760648381611f0857611f0761335d565b5b0492506002810190505b600a8310611f21576001810190505b80915050919050565b6000604051905090565b600080fd5b600080fd5b60007fffffffff0000000000000000000000000000000000000000000000000000000082169050919050565b611f7381611f3e565b8114611f7e57600080fd5b50565b600081359050611f9081611f6a565b92915050565b600060208284031215611fac57611fab611f34565b5b6000611fba84828501611f81565b91505092915050565b60008115159050919050565b611fd881611fc3565b82525050565b6000602082019050611ff36000830184611fcf565b92915050565b600081519050919050565b600082825260208201905092915050565b60005b83811015612033578082015181840152602081019050612018565b60008484015250505050565b6000601f19601f8301169050919050565b600061205b82611ff9565b6120658185612004565b9350612075818560208601612015565b61207e8161203f565b840191505092915050565b600060208201905081810360008301526120a38184612050565b905092915050565b6000819050919050565b6120be816120ab565b81146120c957600080fd5b50565b6000813590506120db816120b5565b92915050565b6000602082840312156120f7576120f6611f34565b5b6000612105848285016120cc565b91505092915050565b600073ffffffffffffffffffffffffffffffffffffffff82169050919050565b60006121398261210e565b9050919050565b6121498161212e565b82525050565b60006020820190506121646000830184612140565b92915050565b6121738161212e565b811461217e57600080fd5b50565b6000813590506121908161216a565b92915050565b600080604083850312156121ad576121ac611f34565b5b60006121bb85828601612181565b92505060206121cc858286016120cc565b9150509250929050565b6000806000606084860312156121ef576121ee611f34565b5b60006121fd86828701612181565b935050602061220e86828701612181565b925050604061221f868287016120cc565b9150509250925092565b600080fd5b600080fd5b7f4e487b7100000000000000000000000000000000000000000000000000000000600052604160045260246000fd5b61226b8261203f565b810181811067ffffffffffffffff8211171561228a57612289612233565b5b80604052505050565b600061229d611f2a565b90506122a98282612262565b919050565b600067ffffffffffffffff8211156122c9576122c8612233565b5b6122d28261203f565b9050602081019050919050565b82818337600083830152505050565b60006123016122fc846122ae565b612293565b90508281526020810184848401111561231d5761231c61222e565b5b6123288482856122df565b509392505050565b600082601f83011261234557612344612229565b5b81356123558482602086016122ee565b91505092915050565b60006020828403121561237457612373611f34565b5b600082013567ffffffffffffffff81111561239257612391611f39565b5b61239e84828501612330565b91505092915050565b600080604083850312156123be576123bd611f34565b5b60006123cc85828601612181565b925050602083013567ffffffffffffffff8111156123ed576123ec611f39565b5b6123f985828601612330565b9150509250929050565b60006020828403121561241957612418611f34565b5b600061242784828501612181565b91505092915050565b612439816120ab565b82525050565b60006020820190506124546000830184612430565b92915050565b61246381611fc3565b811461246e57600080fd5b50565b6000813590506124808161245a565b92915050565b6000806040838503121561249d5761249c611f34565b5b60006124ab85828601612181565b92505060206124bc85828601612471565b9150509250929050565b600067ffffffffffffffff8211156124e1576124e0612233565b5b6124ea8261203f565b9050602081019050919050565b600061250a612505846124c6565b612293565b9050828152602081018484840111156125265761252561222e565b5b6125318482856122df565b509392505050565b600082601f83011261254e5761254d612229565b5b813561255e8482602086016124f7565b91505092915050565b6000806000806080858703121561258157612580611f34565b5b600061258f87828801612181565b94505060206125a087828801612181565b93505060406125b1878288016120cc565b925050606085013567ffffffffffffffff8111156125d2576125d1611f39565b5b6125de87828801612539565b91505092959194509250565b6000806040838503121561260157612600611f34565b5b600061260f85828601612181565b925050602061262085828601612181565b9150509250929050565b600080fd5b600080fd5b6000819050919050565b61264781612634565b811461265257600080fd5b50565b6000813590506126648161263e565b92915050565b6000606082840312156126805761267f61262a565b5b61268a6060612293565b9050600082013567ffffffffffffffff8111156126aa576126a961262f565b5b6126b684828501612330565b60008301525060206126ca84828501612655565b60208301525060406126de84828501612655565b60408301525092915050565b600060608284031215612700576126ff61262a565b5b61270a6060612293565b9050600082013567ffffffffffffffff81111561272a5761272961262f565b5b61273684828501612330565b600083015250602082013567ffffffffffffffff81111561275a5761275961262f565b5b61276684828501612330565b602083015250604082013567ffffffffffffffff81111561278a5761278961262f565b5b6127968482850161266a565b60408301525092915050565b600080604083850312156127b9576127b8611f34565b5b60006127c785828601612181565b925050602083013567ffffffffffffffff8111156127e8576127e7611f39565b5b6127f4858286016126ea565b9150509250929050565b7f4e487b7100000000000000000000000000000000000000000000000000000000600052602260045260246000fd5b6000600282049050600182168061284557607f821691505b602082108103612858576128576127fe565b5b50919050565b7f4552433732313a20617070726f76616c20746f2063757272656e74206f776e6560008201527f7200000000000000000000000000000000000000000000000000000000000000602082015250565b60006128ba602183612004565b91506128c58261285e565b604082019050919050565b600060208201905081810360008301526128e9816128ad565b9050919050565b7f4552433732313a20617070726f76652063616c6c6572206973206e6f7420746f60008201527f6b656e206f776e6572206f7220617070726f76656420666f7220616c6c000000602082015250565b600061294c603d83612004565b9150612957826128f0565b604082019050919050565b6000602082019050818103600083015261297b8161293f565b9050919050565b7f4552433732313a2063616c6c6572206973206e6f7420746f6b656e206f776e6560008201527f72206f7220617070726f76656400000000000000000000000000000000000000602082015250565b60006129de602d83612004565b91506129e982612982565b604082019050919050565b60006020820190508181036000830152612a0d816129d1565b9050919050565b60008190508160005260206000209050919050565b60006020601f8301049050919050565b600082821b905092915050565b600060088302612a767fffffffffffffffffffffffffffffffffffffffffffffffffffffffffffffffff82612a39565b612a808683612a39565b95508019841693508086168417925050509392505050565b6000819050919050565b6000612abd612ab8612ab3846120ab565b612a98565b6120ab565b9050919050565b6000819050919050565b612ad783612aa2565b612aeb612ae382612ac4565b848454612a46565b825550505050565b600090565b612b00612af3565b612b0b818484612ace565b505050565b5b81811015612b2f57612b24600082612af8565b600181019050612b11565b5050565b601f821115612b7457612b4581612a14565b612b4e84612a29565b81016020851015612b5d578190505b612b71612b6985612a29565b830182612b10565b50505b505050565b600082821c905092915050565b6000612b9760001984600802612b79565b1980831691505092915050565b6000612bb08383612b86565b9150826002028217905092915050565b612bc982611ff9565b67ffffffffffffffff811115612be257612be1612233565b5b612bec825461282d565b612bf7828285612b33565b600060209050601f831160018114612c2a5760008415612c18578287015190505b612c228582612ba4565b865550612c8a565b601f198416612c3886612a14565b60005b82811015612c6057848901518255600182019150602085019450602081019050612c3b565b86831015612c7d5784890151612c79601f891682612b86565b8355505b6001600288020188555050505b505050505050565b7f4552433732313a20696e76616c696420746f6b656e2049440000000000000000600082015250565b6000612cc8601883612004565b9150612cd382612c92565b602082019050919050565b60006020820190508181036000830152612cf781612cbb565b9050919050565b7f4552433732313a2061646472657373207a65726f206973206e6f74206120766160008201527f6c6964206f776e65720000000000000000000000000000000000000000000000602082015250565b6000612d5a602983612004565b9150612d6582612cfe565b604082019050919050565b60006020820190508181036000830152612d8981612d4d565b9050919050565b600081905092915050565b6000612da682611ff9565b612db08185612d90565b9350612dc0818560208601612015565b80840191505092915050565b6000612dd88285612d9b565b9150612de48284612d9b565b91508190509392505050565b7f4f776e61626c653a206e6577206f776e657220697320746865207a65726f206160008201527f6464726573730000000000000000000000000000000000000000000000000000602082015250565b6000612e4c602683612004565b9150612e5782612df0565b604082019050919050565b60006020820190508181036000830152612e7b81612e3f565b9050919050565b7f4552433732313a207472616e736665722066726f6d20696e636f72726563742060008201527f6f776e6572000000000000000000000000000000000000000000000000000000602082015250565b6000612ede602583612004565b9150612ee982612e82565b604082019050919050565b60006020820190508181036000830152612f0d81612ed1565b9050919050565b7f4552433732313a207472616e7366657220746f20746865207a65726f2061646460008201527f7265737300000000000000000000000000000000000000000000000000000000602082015250565b6000612f70602483612004565b9150612f7b82612f14565b604082019050919050565b60006020820190508181036000830152612f9f81612f63565b9050919050565b7f4f776e61626c653a2063616c6c6572206973206e6f7420746865206f776e6572600082015250565b6000612fdc602083612004565b9150612fe782612fa6565b602082019050919050565b6000602082019050818103600083015261300b81612fcf565b9050919050565b7f4552433732313a20617070726f766520746f2063616c6c657200000000000000600082015250565b6000613048601983612004565b915061305382613012565b602082019050919050565b600060208201905081810360008301526130778161303b565b9050919050565b7f4552433732313a207472616e7366657220746f206e6f6e20455243373231526560008201527f63656976657220696d706c656d656e7465720000000000000000000000000000602082015250565b60006130da603283612004565b91506130e58261307e565b604082019050919050565b60006020820190508181036000830152613109816130cd565b9050919050565b7f4552433732313a206d696e7420746f20746865207a65726f2061646472657373600082015250565b6000613146602083612004565b915061315182613110565b602082019050919050565b6000602082019050818103600083015261317581613139565b9050919050565b7f4552433732313a20746f6b656e20616c7265616479206d696e74656400000000600082015250565b60006131b2601c83612004565b91506131bd8261317c565b602082019050919050565b600060208201905081810360008301526131e1816131a5565b9050919050565b7f45524337323155524953746f726167653a2055524920736574206f66206e6f6e60008201527f6578697374656e7420746f6b656e000000000000000000000000000000000000602082015250565b6000613244602e83612004565b915061324f826131e8565b604082019050919050565b6000602082019050818103600083015261327381613237565b9050919050565b600081519050919050565b600082825260208201905092915050565b60006132a18261327a565b6132ab8185613285565b93506132bb818560208601612015565b6132c48161203f565b840191505092915050565b60006080820190506132e46000830187612140565b6132f16020830186612140565b6132fe6040830185612430565b81810360608301526133108184613296565b905095945050505050565b60008151905061332a81611f6a565b92915050565b60006020828403121561334657613345611f34565b5b60006133548482850161331b565b91505092915050565b7f4e487b7100000000000000000000000000000000000000000000000000000000600052601260045260246000fdfea2646970667358221220c6441ea9c93b783787cedb60b5967853ce28c04a85a958b786dbc86ebe52fc5b64736f6c63430008120033",
  "linkReferences": {},
  "deployedLinkReferences": {}
}